{
  "_format": "hh-sol-artifact-1",
  "contractName": "Voter",
  "sourceName": "contracts/Voter.sol",
  "abi": [
    {
      "inputs": [],
      "stateMutability": "nonpayable",
      "type": "constructor"
    },
    {
      "anonymous": false,
      "inputs": [
        {
          "indexed": true,
          "internalType": "address",
          "name": "previousOwner",
          "type": "address"
        },
        {
          "indexed": true,
          "internalType": "address",
          "name": "newOwner",
          "type": "address"
        }
      ],
      "name": "OwnershipTransferred",
      "type": "event"
    },
    {
      "anonymous": false,
      "inputs": [
        {
          "indexed": true,
          "internalType": "address",
          "name": "startVoteFrom",
          "type": "address"
        },
        {
          "indexed": false,
          "internalType": "string",
          "name": "question",
          "type": "string"
        },
        {
          "indexed": false,
          "internalType": "string",
          "name": "choice_a",
          "type": "string"
        },
        {
          "indexed": false,
          "internalType": "string",
          "name": "choice_b",
          "type": "string"
        },
        {
          "indexed": false,
          "internalType": "string",
          "name": "choice_c",
          "type": "string"
        },
        {
          "indexed": false,
          "internalType": "uint256",
          "name": "finishTime",
          "type": "uint256"
        }
      ],
      "name": "StartVote",
      "type": "event"
    },
    {
      "anonymous": false,
      "inputs": [
        {
          "indexed": true,
          "internalType": "address",
          "name": "voteFrom",
          "type": "address"
        },
        {
          "indexed": true,
          "internalType": "uint256",
          "name": "choice",
          "type": "uint256"
        },
        {
          "indexed": false,
          "internalType": "uint256",
          "name": "total",
          "type": "uint256"
        }
      ],
      "name": "Vote",
      "type": "event"
    },
    {
      "inputs": [],
      "name": "choice_a",
      "outputs": [
        {
          "internalType": "string",
          "name": "",
          "type": "string"
        }
      ],
      "stateMutability": "view",
      "type": "function"
    },
    {
      "inputs": [],
      "name": "choice_b",
      "outputs": [
        {
          "internalType": "string",
          "name": "",
          "type": "string"
        }
      ],
      "stateMutability": "view",
      "type": "function"
    },
    {
      "inputs": [],
      "name": "choice_c",
      "outputs": [
        {
          "internalType": "string",
          "name": "",
          "type": "string"
        }
      ],
      "stateMutability": "view",
      "type": "function"
    },
    {
      "inputs": [],
      "name": "finishTime",
      "outputs": [
        {
          "internalType": "uint256",
          "name": "",
          "type": "uint256"
        }
      ],
      "stateMutability": "view",
      "type": "function"
    },
    {
      "inputs": [],
      "name": "getResult",
      "outputs": [
        {
          "internalType": "uint256",
          "name": "",
          "type": "uint256"
        },
        {
          "internalType": "uint256",
          "name": "",
          "type": "uint256"
        },
        {
          "internalType": "uint256",
          "name": "",
          "type": "uint256"
        }
      ],
      "stateMutability": "view",
      "type": "function"
    },
    {
      "inputs": [],
      "name": "getVoteInfo",
      "outputs": [
        {
          "internalType": "string",
          "name": "",
          "type": "string"
        },
        {
          "internalType": "string",
          "name": "",
          "type": "string"
        },
        {
          "internalType": "string",
          "name": "",
          "type": "string"
        },
        {
          "internalType": "string",
          "name": "",
          "type": "string"
        },
        {
          "internalType": "uint256",
          "name": "",
          "type": "uint256"
        }
      ],
      "stateMutability": "view",
      "type": "function"
    },
    {
      "inputs": [],
      "name": "owner",
      "outputs": [
        {
          "internalType": "address",
          "name": "",
          "type": "address"
        }
      ],
      "stateMutability": "view",
      "type": "function"
    },
    {
      "inputs": [],
      "name": "question",
      "outputs": [
        {
          "internalType": "string",
          "name": "",
          "type": "string"
        }
      ],
      "stateMutability": "view",
      "type": "function"
    },
    {
      "inputs": [],
      "name": "renounceOwnership",
      "outputs": [],
      "stateMutability": "nonpayable",
      "type": "function"
    },
    {
      "inputs": [
        {
          "internalType": "string",
          "name": "_question",
          "type": "string"
        },
        {
          "internalType": "string",
          "name": "_choice_a",
          "type": "string"
        },
        {
          "internalType": "string",
          "name": "_choice_b",
          "type": "string"
        },
        {
          "internalType": "string",
          "name": "_choice_c",
          "type": "string"
        },
        {
          "internalType": "uint256",
          "name": "_days",
          "type": "uint256"
        }
      ],
      "name": "startVote",
      "outputs": [],
      "stateMutability": "payable",
      "type": "function"
    },
    {
      "inputs": [
        {
          "internalType": "address",
          "name": "newOwner",
          "type": "address"
        }
      ],
      "name": "transferOwnership",
      "outputs": [],
      "stateMutability": "nonpayable",
      "type": "function"
    },
    {
      "inputs": [
        {
          "internalType": "uint256",
          "name": "_choice",
          "type": "uint256"
        }
      ],
      "name": "vote",
      "outputs": [],
      "stateMutability": "nonpayable",
      "type": "function"
    },
    {
      "inputs": [],
      "name": "voteFrom",
      "outputs": [
        {
          "internalType": "address",
          "name": "",
          "type": "address"
        }
      ],
      "stateMutability": "view",
      "type": "function"
    },
    {
      "inputs": [],
      "name": "vote_a",
      "outputs": [
        {
          "internalType": "uint256",
          "name": "",
          "type": "uint256"
        }
      ],
      "stateMutability": "view",
      "type": "function"
    },
    {
      "inputs": [],
      "name": "vote_b",
      "outputs": [
        {
          "internalType": "uint256",
          "name": "",
          "type": "uint256"
        }
      ],
      "stateMutability": "view",
      "type": "function"
    },
    {
      "inputs": [],
      "name": "vote_c",
      "outputs": [
        {
          "internalType": "uint256",
          "name": "",
          "type": "uint256"
        }
      ],
      "stateMutability": "view",
      "type": "function"
    },
    {
      "inputs": [],
      "name": "withdraw",
      "outputs": [],
      "stateMutability": "nonpayable",
      "type": "function"
    }
  ],
  "bytecode": "0x6080604052662386f26fc10000600a5534801561001b57600080fd5b5061003861002d61004460201b60201c565b61004c60201b60201c565b42600981905550610110565b600033905090565b60008060009054906101000a900473ffffffffffffffffffffffffffffffffffffffff169050816000806101000a81548173ffffffffffffffffffffffffffffffffffffffff021916908373ffffffffffffffffffffffffffffffffffffffff1602179055508173ffffffffffffffffffffffffffffffffffffffff168173ffffffffffffffffffffffffffffffffffffffff167f8be0079c531659141344cd1fd0a4f28419497f9722a3daafe3b4186f6b6457e060405160405180910390a35050565b6117ce8061011f6000396000f3fe6080604052600436106100fe5760003560e01c8063715018a611610095578063b1aebd9d11610064578063b1aebd9d146102e1578063cc9e59981461030c578063d936cefb14610337578063de29278914610353578063f2fde38b14610380576100fe565b8063715018a6146102495780638da5cb5b146102605780639e9141d41461028b578063ac86ea1f146102b6576100fe565b8063385d3b49116100d1578063385d3b49146101b15780633ccfd60b146101dc5780633fad9ae0146101f35780635958611e1461021e576100fe565b80630121b93f1461010357806306f370081461012c5780630e743fec1461015757806325dff9d114610182575b600080fd5b34801561010f57600080fd5b5061012a600480360381019061012591906110ca565b6103a9565b005b34801561013857600080fd5b506101416104bc565b60405161014e9190611294565b60405180910390f35b34801561016357600080fd5b5061016c61054a565b6040516101799190611434565b60405180910390f35b34801561018e57600080fd5b50610197610550565b6040516101a89594939291906112b6565b60405180910390f35b3480156101bd57600080fd5b506101c66107a4565b6040516101d39190611279565b60405180910390f35b3480156101e857600080fd5b506101f16107ca565b005b3480156101ff57600080fd5b5061020861089c565b6040516102159190611294565b60405180910390f35b34801561022a57600080fd5b5061023361092a565b6040516102409190611434565b60405180910390f35b34801561025557600080fd5b5061025e610930565b005b34801561026c57600080fd5b506102756109b8565b6040516102829190611279565b60405180910390f35b34801561029757600080fd5b506102a06109e1565b6040516102ad9190611434565b60405180910390f35b3480156102c257600080fd5b506102cb6109e7565b6040516102d89190611434565b60405180910390f35b3480156102ed57600080fd5b506102f66109ed565b6040516103039190611294565b60405180910390f35b34801561031857600080fd5b50610321610a7b565b60405161032e9190611294565b60405180910390f35b610351600480360381019061034c9190610fe2565b610b09565b005b34801561035f57600080fd5b50610368610cc5565b6040516103779392919061144f565b60405180910390f35b34801561038c57600080fd5b506103a760048036038101906103a29190610fb9565b610cde565b005b60095442106103ed576040517f08c379a00000000000000000000000000000000000000000000000000000000081526004016103e4906113d4565b60405180910390fd5b60008082141561041b5760016006600082825461040a91906114b7565b925050819055506006549050610469565b60018214156104485760016007600082825461043791906114b7565b925050819055506007549050610468565b60016008600082825461045b91906114b7565b9250508190555060085490505b5b813373ffffffffffffffffffffffffffffffffffffffff167fafd3f234c1f8e944129b26b206d98e5752ad3336a4059938b4a3e990e9588530836040516104b09190611434565b60405180910390a35050565b600580546104c9906115d6565b80601f01602080910402602001604051908101604052809291908181526020018280546104f5906115d6565b80156105425780601f1061051757610100808354040283529160200191610542565b820191906000526020600020905b81548152906001019060200180831161052557829003601f168201915b505050505081565b60065481565b6060806060806000600260036004600560095484805461056f906115d6565b80601f016020809104026020016040519081016040528092919081815260200182805461059b906115d6565b80156105e85780601f106105bd576101008083540402835291602001916105e8565b820191906000526020600020905b8154815290600101906020018083116105cb57829003601f168201915b505050505094508380546105fb906115d6565b80601f0160208091040260200160405190810160405280929190818152602001828054610627906115d6565b80156106745780601f1061064957610100808354040283529160200191610674565b820191906000526020600020905b81548152906001019060200180831161065757829003601f168201915b50505050509350828054610687906115d6565b80601f01602080910402602001604051908101604052809291908181526020018280546106b3906115d6565b80156107005780601f106106d557610100808354040283529160200191610700565b820191906000526020600020905b8154815290600101906020018083116106e357829003601f168201915b50505050509250818054610713906115d6565b80601f016020809104026020016040519081016040528092919081815260200182805461073f906115d6565b801561078c5780601f106107615761010080835404028352916020019161078c565b820191906000526020600020905b81548152906001019060200180831161076f57829003601f168201915b50505050509150945094509450945094509091929394565b600160009054906101000a900473ffffffffffffffffffffffffffffffffffffffff1681565b6107d2610dd6565b73ffffffffffffffffffffffffffffffffffffffff166107f06109b8565b73ffffffffffffffffffffffffffffffffffffffff1614610846576040517f08c379a000000000000000000000000000000000000000000000000000000000815260040161083d906113b4565b60405180910390fd5b60006108506109b8565b90508073ffffffffffffffffffffffffffffffffffffffff166108fc479081150290604051600060405180830381858888f19350505050158015610898573d6000803e3d6000fd5b5050565b600280546108a9906115d6565b80601f01602080910402602001604051908101604052809291908181526020018280546108d5906115d6565b80156109225780601f106108f757610100808354040283529160200191610922565b820191906000526020600020905b81548152906001019060200180831161090557829003601f168201915b505050505081565b60095481565b610938610dd6565b73ffffffffffffffffffffffffffffffffffffffff166109566109b8565b73ffffffffffffffffffffffffffffffffffffffff16146109ac576040517f08c379a00000000000000000000000000000000000000000000000000000000081526004016109a3906113b4565b60405180910390fd5b6109b66000610dde565b565b60008060009054906101000a900473ffffffffffffffffffffffffffffffffffffffff16905090565b60085481565b60075481565b600480546109fa906115d6565b80601f0160208091040260200160405190810160405280929190818152602001828054610a26906115d6565b8015610a735780601f10610a4857610100808354040283529160200191610a73565b820191906000526020600020905b815481529060010190602001808311610a5657829003601f168201915b505050505081565b60038054610a88906115d6565b80601f0160208091040260200160405190810160405280929190818152602001828054610ab4906115d6565b8015610b015780601f10610ad657610100808354040283529160200191610b01565b820191906000526020600020905b815481529060010190602001808311610ae457829003601f168201915b505050505081565b600954421015610b4e576040517f08c379a0000000000000000000000000000000000000000000000000000000008152600401610b4590611414565b60405180910390fd5b80600a54610b5c919061150d565b3414610b9d576040517f08c379a0000000000000000000000000000000000000000000000000000000008152600401610b94906113f4565b60405180910390fd5b888860029190610bae929190610ea2565b50868660039190610bc0929190610ea2565b50848460049190610bd2929190610ea2565b50828260059190610be4929190610ea2565b506201518081610bf4919061150d565b42610bff91906114b7565b60098190555033600160006101000a81548173ffffffffffffffffffffffffffffffffffffffff021916908373ffffffffffffffffffffffffffffffffffffffff1602179055506000600681905550600060078190555060006008819055503373ffffffffffffffffffffffffffffffffffffffff167f27d8123abe5adbe56c46403df17c8fbd2b71917d02e7bb57b28b8b4780cb363e6002600360046005600954604051610cb2959493929190611325565b60405180910390a2505050505050505050565b6000806000600654600754600854925092509250909192565b610ce6610dd6565b73ffffffffffffffffffffffffffffffffffffffff16610d046109b8565b73ffffffffffffffffffffffffffffffffffffffff1614610d5a576040517f08c379a0000000000000000000000000000000000000000000000000000000008152600401610d51906113b4565b60405180910390fd5b600073ffffffffffffffffffffffffffffffffffffffff168173ffffffffffffffffffffffffffffffffffffffff161415610dca576040517f08c379a0000000000000000000000000000000000000000000000000000000008152600401610dc190611394565b60405180910390fd5b610dd381610dde565b50565b600033905090565b60008060009054906101000a900473ffffffffffffffffffffffffffffffffffffffff169050816000806101000a81548173ffffffffffffffffffffffffffffffffffffffff021916908373ffffffffffffffffffffffffffffffffffffffff1602179055508173ffffffffffffffffffffffffffffffffffffffff168173ffffffffffffffffffffffffffffffffffffffff167f8be0079c531659141344cd1fd0a4f28419497f9722a3daafe3b4186f6b6457e060405160405180910390a35050565b828054610eae906115d6565b90600052602060002090601f016020900481019282610ed05760008555610f17565b82601f10610ee957803560ff1916838001178555610f17565b82800160010185558215610f17579182015b82811115610f16578235825591602001919060010190610efb565b5b509050610f249190610f28565b5090565b5b80821115610f41576000816000905550600101610f29565b5090565b600081359050610f548161176a565b92915050565b60008083601f840112610f6c57600080fd5b8235905067ffffffffffffffff811115610f8557600080fd5b602083019150836001820283011115610f9d57600080fd5b9250929050565b600081359050610fb381611781565b92915050565b600060208284031215610fcb57600080fd5b6000610fd984828501610f45565b91505092915050565b600080600080600080600080600060a08a8c03121561100057600080fd5b60008a013567ffffffffffffffff81111561101a57600080fd5b6110268c828d01610f5a565b995099505060208a013567ffffffffffffffff81111561104557600080fd5b6110518c828d01610f5a565b975097505060408a013567ffffffffffffffff81111561107057600080fd5b61107c8c828d01610f5a565b955095505060608a013567ffffffffffffffff81111561109b57600080fd5b6110a78c828d01610f5a565b935093505060806110ba8c828d01610fa4565b9150509295985092959850929598565b6000602082840312156110dc57600080fd5b60006110ea84828501610fa4565b91505092915050565b6110fc81611567565b82525050565b600061110d8261149b565b61111781856114a6565b93506111278185602086016115a3565b61113081611666565b840191505092915050565b60008154611148816115d6565b61115281866114a6565b9450600182166000811461116d576001811461117f576111b2565b60ff19831686526020860193506111b2565b61118885611486565b60005b838110156111aa5781548189015260018201915060208101905061118b565b808801955050505b50505092915050565b60006111c86026836114a6565b91506111d382611677565b604082019050919050565b60006111eb6020836114a6565b91506111f6826116c6565b602082019050919050565b600061120e6011836114a6565b9150611219826116ef565b602082019050919050565b6000611231600c836114a6565b915061123c82611718565b602082019050919050565b60006112546019836114a6565b915061125f82611741565b602082019050919050565b61127381611599565b82525050565b600060208201905061128e60008301846110f3565b92915050565b600060208201905081810360008301526112ae8184611102565b905092915050565b600060a08201905081810360008301526112d08188611102565b905081810360208301526112e48187611102565b905081810360408301526112f88186611102565b9050818103606083015261130c8185611102565b905061131b608083018461126a565b9695505050505050565b600060a082019050818103600083015261133f818861113b565b90508181036020830152611353818761113b565b90508181036040830152611367818661113b565b9050818103606083015261137b818561113b565b905061138a608083018461126a565b9695505050505050565b600060208201905081810360008301526113ad816111bb565b9050919050565b600060208201905081810360008301526113cd816111de565b9050919050565b600060208201905081810360008301526113ed81611201565b9050919050565b6000602082019050818103600083015261140d81611224565b9050919050565b6000602082019050818103600083015261142d81611247565b9050919050565b6000602082019050611449600083018461126a565b92915050565b6000606082019050611464600083018661126a565b611471602083018561126a565b61147e604083018461126a565b949350505050565b60008190508160005260206000209050919050565b600081519050919050565b600082825260208201905092915050565b60006114c282611599565b91506114cd83611599565b9250827fffffffffffffffffffffffffffffffffffffffffffffffffffffffffffffffff0382111561150257611501611608565b5b828201905092915050565b600061151882611599565b915061152383611599565b9250817fffffffffffffffffffffffffffffffffffffffffffffffffffffffffffffffff048311821515161561155c5761155b611608565b5b828202905092915050565b600061157282611579565b9050919050565b600073ffffffffffffffffffffffffffffffffffffffff82169050919050565b6000819050919050565b60005b838110156115c15780820151818401526020810190506115a6565b838111156115d0576000848401525b50505050565b600060028204905060018216806115ee57607f821691505b6020821081141561160257611601611637565b5b50919050565b7f4e487b7100000000000000000000000000000000000000000000000000000000600052601160045260246000fd5b7f4e487b7100000000000000000000000000000000000000000000000000000000600052602260045260246000fd5b6000601f19601f8301169050919050565b7f4f776e61626c653a206e6577206f776e657220697320746865207a65726f206160008201527f6464726573730000000000000000000000000000000000000000000000000000602082015250565b7f4f776e61626c653a2063616c6c6572206973206e6f7420746865206f776e6572600082015250565b7f566f74652069732066696e697368656421000000000000000000000000000000600082015250565b7f496e76616c696420666565210000000000000000000000000000000000000000600082015250565b7f566f7465206973206e6f742066696e6973686564207965742100000000000000600082015250565b61177381611567565b811461177e57600080fd5b50565b61178a81611599565b811461179557600080fd5b5056fea264697066735822122000809dfba9fa5f6f62e9d72592790df092261661d187f6c68304241e3e9ff00864736f6c63430008040033",
  "linkReferences": {},
  "deployedLinkReferences": {}
}