{
  "_format": "hh-sol-artifact-1",
  "contractName": "Voter",
  "sourceName": "contracts/Voter.sol",
  "abi": [
    {
      "inputs": [],
      "stateMutability": "nonpayable",
      "type": "constructor"
    },
    {
      "anonymous": false,
      "inputs": [
        {
          "indexed": true,
          "internalType": "address",
          "name": "previousOwner",
          "type": "address"
        },
        {
          "indexed": true,
          "internalType": "address",
          "name": "newOwner",
          "type": "address"
        }
      ],
      "name": "OwnershipTransferred",
      "type": "event"
    },
    {
      "anonymous": false,
      "inputs": [
        {
          "indexed": true,
          "internalType": "address",
          "name": "startVoteFrom",
          "type": "address"
        },
        {
          "indexed": false,
          "internalType": "string",
          "name": "question",
          "type": "string"
        },
        {
          "indexed": false,
          "internalType": "string",
          "name": "choice_a",
          "type": "string"
        },
        {
          "indexed": false,
          "internalType": "string",
          "name": "choice_b",
          "type": "string"
        },
        {
          "indexed": false,
          "internalType": "string",
          "name": "choice_c",
          "type": "string"
        },
        {
          "indexed": false,
          "internalType": "uint256",
          "name": "finishTime",
          "type": "uint256"
        }
      ],
      "name": "StartVote",
      "type": "event"
    },
    {
      "anonymous": false,
      "inputs": [
        {
          "indexed": true,
          "internalType": "address",
          "name": "voteFrom",
          "type": "address"
        },
        {
          "indexed": true,
          "internalType": "uint256",
          "name": "choice",
          "type": "uint256"
        },
        {
          "indexed": false,
          "internalType": "uint256",
          "name": "total",
          "type": "uint256"
        }
      ],
      "name": "Vote",
      "type": "event"
    },
    {
      "inputs": [],
      "name": "choice_a",
      "outputs": [
        {
          "internalType": "string",
          "name": "",
          "type": "string"
        }
      ],
      "stateMutability": "view",
      "type": "function"
    },
    {
      "inputs": [],
      "name": "choice_b",
      "outputs": [
        {
          "internalType": "string",
          "name": "",
          "type": "string"
        }
      ],
      "stateMutability": "view",
      "type": "function"
    },
    {
      "inputs": [],
      "name": "choice_c",
      "outputs": [
        {
          "internalType": "string",
          "name": "",
          "type": "string"
        }
      ],
      "stateMutability": "view",
      "type": "function"
    },
    {
      "inputs": [],
      "name": "finishTime",
      "outputs": [
        {
          "internalType": "uint256",
          "name": "",
          "type": "uint256"
        }
      ],
      "stateMutability": "view",
      "type": "function"
    },
    {
      "inputs": [],
      "name": "getResult",
      "outputs": [
        {
          "internalType": "uint256",
          "name": "",
          "type": "uint256"
        },
        {
          "internalType": "uint256",
          "name": "",
          "type": "uint256"
        },
        {
          "internalType": "uint256",
          "name": "",
          "type": "uint256"
        }
      ],
      "stateMutability": "view",
      "type": "function"
    },
    {
      "inputs": [],
      "name": "getVoteInfo",
      "outputs": [
        {
          "internalType": "bool",
          "name": "",
          "type": "bool"
        },
        {
          "internalType": "string",
          "name": "",
          "type": "string"
        },
        {
          "internalType": "string",
          "name": "",
          "type": "string"
        },
        {
          "internalType": "string",
          "name": "",
          "type": "string"
        },
        {
          "internalType": "string",
          "name": "",
          "type": "string"
        },
        {
          "internalType": "uint256",
          "name": "",
          "type": "uint256"
        }
      ],
      "stateMutability": "view",
      "type": "function"
    },
    {
      "inputs": [],
      "name": "owner",
      "outputs": [
        {
          "internalType": "address",
          "name": "",
          "type": "address"
        }
      ],
      "stateMutability": "view",
      "type": "function"
    },
    {
      "inputs": [],
      "name": "question",
      "outputs": [
        {
          "internalType": "string",
          "name": "",
          "type": "string"
        }
      ],
      "stateMutability": "view",
      "type": "function"
    },
    {
      "inputs": [],
      "name": "renounceOwnership",
      "outputs": [],
      "stateMutability": "nonpayable",
      "type": "function"
    },
    {
      "inputs": [
        {
          "internalType": "string",
          "name": "_question",
          "type": "string"
        },
        {
          "internalType": "string",
          "name": "_choice_a",
          "type": "string"
        },
        {
          "internalType": "string",
          "name": "_choice_b",
          "type": "string"
        },
        {
          "internalType": "string",
          "name": "_choice_c",
          "type": "string"
        },
        {
          "internalType": "uint256",
          "name": "_days",
          "type": "uint256"
        }
      ],
      "name": "startVote",
      "outputs": [],
      "stateMutability": "payable",
      "type": "function"
    },
    {
      "inputs": [
        {
          "internalType": "address",
          "name": "newOwner",
          "type": "address"
        }
      ],
      "name": "transferOwnership",
      "outputs": [],
      "stateMutability": "nonpayable",
      "type": "function"
    },
    {
      "inputs": [
        {
          "internalType": "uint256",
          "name": "_choice",
          "type": "uint256"
        }
      ],
      "name": "vote",
      "outputs": [],
      "stateMutability": "nonpayable",
      "type": "function"
    },
    {
      "inputs": [],
      "name": "voteFrom",
      "outputs": [
        {
          "internalType": "address",
          "name": "",
          "type": "address"
        }
      ],
      "stateMutability": "view",
      "type": "function"
    },
    {
      "inputs": [],
      "name": "vote_a",
      "outputs": [
        {
          "internalType": "uint256",
          "name": "",
          "type": "uint256"
        }
      ],
      "stateMutability": "view",
      "type": "function"
    },
    {
      "inputs": [],
      "name": "vote_b",
      "outputs": [
        {
          "internalType": "uint256",
          "name": "",
          "type": "uint256"
        }
      ],
      "stateMutability": "view",
      "type": "function"
    },
    {
      "inputs": [],
      "name": "vote_c",
      "outputs": [
        {
          "internalType": "uint256",
          "name": "",
          "type": "uint256"
        }
      ],
      "stateMutability": "view",
      "type": "function"
    },
    {
      "inputs": [],
      "name": "withdraw",
      "outputs": [],
      "stateMutability": "nonpayable",
      "type": "function"
    }
  ],
  "bytecode": "0x6080604052662386f26fc10000600a5534801561001b57600080fd5b5061003861002d61004460201b60201c565b61004c60201b60201c565b42600981905550610110565b600033905090565b60008060009054906101000a900473ffffffffffffffffffffffffffffffffffffffff169050816000806101000a81548173ffffffffffffffffffffffffffffffffffffffff021916908373ffffffffffffffffffffffffffffffffffffffff1602179055508173ffffffffffffffffffffffffffffffffffffffff168173ffffffffffffffffffffffffffffffffffffffff167f8be0079c531659141344cd1fd0a4f28419497f9722a3daafe3b4186f6b6457e060405160405180910390a35050565b6118078061011f6000396000f3fe6080604052600436106100fe5760003560e01c8063715018a611610095578063b1aebd9d11610064578063b1aebd9d146102e2578063cc9e59981461030d578063d936cefb14610338578063de29278914610354578063f2fde38b14610381576100fe565b8063715018a61461024a5780638da5cb5b146102615780639e9141d41461028c578063ac86ea1f146102b7576100fe565b8063385d3b49116100d1578063385d3b49146101b25780633ccfd60b146101dd5780633fad9ae0146101f45780635958611e1461021f576100fe565b80630121b93f1461010357806306f370081461012c5780630e743fec1461015757806325dff9d114610182575b600080fd5b34801561010f57600080fd5b5061012a600480360381019061012591906110da565b6103aa565b005b34801561013857600080fd5b506101416104bd565b60405161014e9190611330565b60405180910390f35b34801561016357600080fd5b5061016c61054b565b6040516101799190611461565b60405180910390f35b34801561018e57600080fd5b50610197610551565b6040516101a9969594939291906112b3565b60405180910390f35b3480156101be57600080fd5b506101c76107b4565b6040516101d49190611298565b60405180910390f35b3480156101e957600080fd5b506101f26107da565b005b34801561020057600080fd5b506102096108ac565b6040516102169190611330565b60405180910390f35b34801561022b57600080fd5b5061023461093a565b6040516102419190611461565b60405180910390f35b34801561025657600080fd5b5061025f610940565b005b34801561026d57600080fd5b506102766109c8565b6040516102839190611298565b60405180910390f35b34801561029857600080fd5b506102a16109f1565b6040516102ae9190611461565b60405180910390f35b3480156102c357600080fd5b506102cc6109f7565b6040516102d99190611461565b60405180910390f35b3480156102ee57600080fd5b506102f76109fd565b6040516103049190611330565b60405180910390f35b34801561031957600080fd5b50610322610a8b565b60405161032f9190611330565b60405180910390f35b610352600480360381019061034d9190610ff2565b610b19565b005b34801561036057600080fd5b50610369610cd5565b6040516103789392919061147c565b60405180910390f35b34801561038d57600080fd5b506103a860048036038101906103a39190610fc9565b610cee565b005b60095442106103ee576040517f08c379a00000000000000000000000000000000000000000000000000000000081526004016103e590611401565b60405180910390fd5b60008082141561041c5760016006600082825461040b91906114e4565b92505081905550600654905061046a565b60018214156104495760016007600082825461043891906114e4565b925050819055506007549050610469565b60016008600082825461045c91906114e4565b9250508190555060085490505b5b813373ffffffffffffffffffffffffffffffffffffffff167fafd3f234c1f8e944129b26b206d98e5752ad3336a4059938b4a3e990e9588530836040516104b19190611461565b60405180910390a35050565b600580546104ca9061160f565b80601f01602080910402602001604051908101604052809291908181526020018280546104f69061160f565b80156105435780601f1061051857610100808354040283529160200191610543565b820191906000526020600020905b81548152906001019060200180831161052657829003601f168201915b505050505081565b60065481565b60006060806060806000806009544210905080600260036004600560095484805461057b9061160f565b80601f01602080910402602001604051908101604052809291908181526020018280546105a79061160f565b80156105f45780601f106105c9576101008083540402835291602001916105f4565b820191906000526020600020905b8154815290600101906020018083116105d757829003601f168201915b505050505094508380546106079061160f565b80601f01602080910402602001604051908101604052809291908181526020018280546106339061160f565b80156106805780601f1061065557610100808354040283529160200191610680565b820191906000526020600020905b81548152906001019060200180831161066357829003601f168201915b505050505093508280546106939061160f565b80601f01602080910402602001604051908101604052809291908181526020018280546106bf9061160f565b801561070c5780601f106106e15761010080835404028352916020019161070c565b820191906000526020600020905b8154815290600101906020018083116106ef57829003601f168201915b5050505050925081805461071f9061160f565b80601f016020809104026020016040519081016040528092919081815260200182805461074b9061160f565b80156107985780601f1061076d57610100808354040283529160200191610798565b820191906000526020600020905b81548152906001019060200180831161077b57829003601f168201915b5050505050915096509650965096509650965050909192939495565b600160009054906101000a900473ffffffffffffffffffffffffffffffffffffffff1681565b6107e2610de6565b73ffffffffffffffffffffffffffffffffffffffff166108006109c8565b73ffffffffffffffffffffffffffffffffffffffff1614610856576040517f08c379a000000000000000000000000000000000000000000000000000000000815260040161084d906113e1565b60405180910390fd5b60006108606109c8565b90508073ffffffffffffffffffffffffffffffffffffffff166108fc479081150290604051600060405180830381858888f193505050501580156108a8573d6000803e3d6000fd5b5050565b600280546108b99061160f565b80601f01602080910402602001604051908101604052809291908181526020018280546108e59061160f565b80156109325780601f1061090757610100808354040283529160200191610932565b820191906000526020600020905b81548152906001019060200180831161091557829003601f168201915b505050505081565b60095481565b610948610de6565b73ffffffffffffffffffffffffffffffffffffffff166109666109c8565b73ffffffffffffffffffffffffffffffffffffffff16146109bc576040517f08c379a00000000000000000000000000000000000000000000000000000000081526004016109b3906113e1565b60405180910390fd5b6109c66000610dee565b565b60008060009054906101000a900473ffffffffffffffffffffffffffffffffffffffff16905090565b60085481565b60075481565b60048054610a0a9061160f565b80601f0160208091040260200160405190810160405280929190818152602001828054610a369061160f565b8015610a835780601f10610a5857610100808354040283529160200191610a83565b820191906000526020600020905b815481529060010190602001808311610a6657829003601f168201915b505050505081565b60038054610a989061160f565b80601f0160208091040260200160405190810160405280929190818152602001828054610ac49061160f565b8015610b115780601f10610ae657610100808354040283529160200191610b11565b820191906000526020600020905b815481529060010190602001808311610af457829003601f168201915b505050505081565b600954421015610b5e576040517f08c379a0000000000000000000000000000000000000000000000000000000008152600401610b5590611441565b60405180910390fd5b80600a54610b6c919061153a565b3414610bad576040517f08c379a0000000000000000000000000000000000000000000000000000000008152600401610ba490611421565b60405180910390fd5b888860029190610bbe929190610eb2565b50868660039190610bd0929190610eb2565b50848460049190610be2929190610eb2565b50828260059190610bf4929190610eb2565b506201518081610c04919061153a565b42610c0f91906114e4565b60098190555033600160006101000a81548173ffffffffffffffffffffffffffffffffffffffff021916908373ffffffffffffffffffffffffffffffffffffffff1602179055506000600681905550600060078190555060006008819055503373ffffffffffffffffffffffffffffffffffffffff167f27d8123abe5adbe56c46403df17c8fbd2b71917d02e7bb57b28b8b4780cb363e6002600360046005600954604051610cc2959493929190611352565b60405180910390a2505050505050505050565b6000806000600654600754600854925092509250909192565b610cf6610de6565b73ffffffffffffffffffffffffffffffffffffffff16610d146109c8565b73ffffffffffffffffffffffffffffffffffffffff1614610d6a576040517f08c379a0000000000000000000000000000000000000000000000000000000008152600401610d61906113e1565b60405180910390fd5b600073ffffffffffffffffffffffffffffffffffffffff168173ffffffffffffffffffffffffffffffffffffffff161415610dda576040517f08c379a0000000000000000000000000000000000000000000000000000000008152600401610dd1906113c1565b60405180910390fd5b610de381610dee565b50565b600033905090565b60008060009054906101000a900473ffffffffffffffffffffffffffffffffffffffff169050816000806101000a81548173ffffffffffffffffffffffffffffffffffffffff021916908373ffffffffffffffffffffffffffffffffffffffff1602179055508173ffffffffffffffffffffffffffffffffffffffff168173ffffffffffffffffffffffffffffffffffffffff167f8be0079c531659141344cd1fd0a4f28419497f9722a3daafe3b4186f6b6457e060405160405180910390a35050565b828054610ebe9061160f565b90600052602060002090601f016020900481019282610ee05760008555610f27565b82601f10610ef957803560ff1916838001178555610f27565b82800160010185558215610f27579182015b82811115610f26578235825591602001919060010190610f0b565b5b509050610f349190610f38565b5090565b5b80821115610f51576000816000905550600101610f39565b5090565b600081359050610f64816117a3565b92915050565b60008083601f840112610f7c57600080fd5b8235905067ffffffffffffffff811115610f9557600080fd5b602083019150836001820283011115610fad57600080fd5b9250929050565b600081359050610fc3816117ba565b92915050565b600060208284031215610fdb57600080fd5b6000610fe984828501610f55565b91505092915050565b600080600080600080600080600060a08a8c03121561101057600080fd5b60008a013567ffffffffffffffff81111561102a57600080fd5b6110368c828d01610f6a565b995099505060208a013567ffffffffffffffff81111561105557600080fd5b6110618c828d01610f6a565b975097505060408a013567ffffffffffffffff81111561108057600080fd5b61108c8c828d01610f6a565b955095505060608a013567ffffffffffffffff8111156110ab57600080fd5b6110b78c828d01610f6a565b935093505060806110ca8c828d01610fb4565b9150509295985092959850929598565b6000602082840312156110ec57600080fd5b60006110fa84828501610fb4565b91505092915050565b61110c81611594565b82525050565b61111b816115a6565b82525050565b600061112c826114c8565b61113681856114d3565b93506111468185602086016115dc565b61114f8161169f565b840191505092915050565b600081546111678161160f565b61117181866114d3565b9450600182166000811461118c576001811461119e576111d1565b60ff19831686526020860193506111d1565b6111a7856114b3565b60005b838110156111c9578154818901526001820191506020810190506111aa565b808801955050505b50505092915050565b60006111e76026836114d3565b91506111f2826116b0565b604082019050919050565b600061120a6020836114d3565b9150611215826116ff565b602082019050919050565b600061122d6011836114d3565b915061123882611728565b602082019050919050565b6000611250600c836114d3565b915061125b82611751565b602082019050919050565b60006112736019836114d3565b915061127e8261177a565b602082019050919050565b611292816115d2565b82525050565b60006020820190506112ad6000830184611103565b92915050565b600060c0820190506112c86000830189611112565b81810360208301526112da8188611121565b905081810360408301526112ee8187611121565b905081810360608301526113028186611121565b905081810360808301526113168185611121565b905061132560a0830184611289565b979650505050505050565b6000602082019050818103600083015261134a8184611121565b905092915050565b600060a082019050818103600083015261136c818861115a565b90508181036020830152611380818761115a565b90508181036040830152611394818661115a565b905081810360608301526113a8818561115a565b90506113b76080830184611289565b9695505050505050565b600060208201905081810360008301526113da816111da565b9050919050565b600060208201905081810360008301526113fa816111fd565b9050919050565b6000602082019050818103600083015261141a81611220565b9050919050565b6000602082019050818103600083015261143a81611243565b9050919050565b6000602082019050818103600083015261145a81611266565b9050919050565b60006020820190506114766000830184611289565b92915050565b60006060820190506114916000830186611289565b61149e6020830185611289565b6114ab6040830184611289565b949350505050565b60008190508160005260206000209050919050565b600081519050919050565b600082825260208201905092915050565b60006114ef826115d2565b91506114fa836115d2565b9250827fffffffffffffffffffffffffffffffffffffffffffffffffffffffffffffffff0382111561152f5761152e611641565b5b828201905092915050565b6000611545826115d2565b9150611550836115d2565b9250817fffffffffffffffffffffffffffffffffffffffffffffffffffffffffffffffff048311821515161561158957611588611641565b5b828202905092915050565b600061159f826115b2565b9050919050565b60008115159050919050565b600073ffffffffffffffffffffffffffffffffffffffff82169050919050565b6000819050919050565b60005b838110156115fa5780820151818401526020810190506115df565b83811115611609576000848401525b50505050565b6000600282049050600182168061162757607f821691505b6020821081141561163b5761163a611670565b5b50919050565b7f4e487b7100000000000000000000000000000000000000000000000000000000600052601160045260246000fd5b7f4e487b7100000000000000000000000000000000000000000000000000000000600052602260045260246000fd5b6000601f19601f8301169050919050565b7f4f776e61626c653a206e6577206f776e657220697320746865207a65726f206160008201527f6464726573730000000000000000000000000000000000000000000000000000602082015250565b7f4f776e61626c653a2063616c6c6572206973206e6f7420746865206f776e6572600082015250565b7f566f74652069732066696e697368656421000000000000000000000000000000600082015250565b7f496e76616c696420666565210000000000000000000000000000000000000000600082015250565b7f566f7465206973206e6f742066696e6973686564207965742100000000000000600082015250565b6117ac81611594565b81146117b757600080fd5b50565b6117c3816115d2565b81146117ce57600080fd5b5056fea26469706673582212204ea917b45f70dc02a0dcfb7fe04bc8372802a1c27476d67a58c69eab82c9ae4e64736f6c63430008040033",
  "linkReferences": {},
  "deployedLinkReferences": {}
}