{
  "_format": "hh-sol-artifact-1",
  "contractName": "Voter",
  "sourceName": "contracts/Voter.sol",
  "abi": [
    {
      "inputs": [],
      "stateMutability": "nonpayable",
      "type": "constructor"
    },
    {
      "anonymous": false,
      "inputs": [
        {
          "indexed": true,
          "internalType": "address",
          "name": "from",
          "type": "address"
        }
      ],
      "name": "FinishVote",
      "type": "event"
    },
    {
      "anonymous": false,
      "inputs": [
        {
          "indexed": true,
          "internalType": "address",
          "name": "previousOwner",
          "type": "address"
        },
        {
          "indexed": true,
          "internalType": "address",
          "name": "newOwner",
          "type": "address"
        }
      ],
      "name": "OwnershipTransferred",
      "type": "event"
    },
    {
      "anonymous": false,
      "inputs": [
        {
          "indexed": true,
          "internalType": "address",
          "name": "startVoteFrom",
          "type": "address"
        },
        {
          "indexed": false,
          "internalType": "string",
          "name": "question",
          "type": "string"
        },
        {
          "indexed": false,
          "internalType": "string",
          "name": "choice_a",
          "type": "string"
        },
        {
          "indexed": false,
          "internalType": "string",
          "name": "choice_b",
          "type": "string"
        },
        {
          "indexed": false,
          "internalType": "string",
          "name": "choice_c",
          "type": "string"
        },
        {
          "indexed": false,
          "internalType": "uint256",
          "name": "finishTime",
          "type": "uint256"
        }
      ],
      "name": "StartVote",
      "type": "event"
    },
    {
      "anonymous": false,
      "inputs": [
        {
          "indexed": true,
          "internalType": "address",
          "name": "voteFrom",
          "type": "address"
        },
        {
          "indexed": true,
          "internalType": "uint256",
          "name": "choice",
          "type": "uint256"
        },
        {
          "indexed": false,
          "internalType": "uint256",
          "name": "total",
          "type": "uint256"
        }
      ],
      "name": "Vote",
      "type": "event"
    },
    {
      "inputs": [],
      "name": "choice_a",
      "outputs": [
        {
          "internalType": "string",
          "name": "",
          "type": "string"
        }
      ],
      "stateMutability": "view",
      "type": "function"
    },
    {
      "inputs": [],
      "name": "choice_b",
      "outputs": [
        {
          "internalType": "string",
          "name": "",
          "type": "string"
        }
      ],
      "stateMutability": "view",
      "type": "function"
    },
    {
      "inputs": [],
      "name": "choice_c",
      "outputs": [
        {
          "internalType": "string",
          "name": "",
          "type": "string"
        }
      ],
      "stateMutability": "view",
      "type": "function"
    },
    {
      "inputs": [],
      "name": "finish",
      "outputs": [],
      "stateMutability": "nonpayable",
      "type": "function"
    },
    {
      "inputs": [],
      "name": "finishTime",
      "outputs": [
        {
          "internalType": "uint256",
          "name": "",
          "type": "uint256"
        }
      ],
      "stateMutability": "view",
      "type": "function"
    },
    {
      "inputs": [],
      "name": "getResult",
      "outputs": [
        {
          "internalType": "uint256",
          "name": "",
          "type": "uint256"
        },
        {
          "internalType": "uint256",
          "name": "",
          "type": "uint256"
        },
        {
          "internalType": "uint256",
          "name": "",
          "type": "uint256"
        }
      ],
      "stateMutability": "view",
      "type": "function"
    },
    {
      "inputs": [],
      "name": "getVoteInfo",
      "outputs": [
        {
          "internalType": "bool",
          "name": "",
          "type": "bool"
        },
        {
          "internalType": "address",
          "name": "",
          "type": "address"
        },
        {
          "internalType": "string",
          "name": "",
          "type": "string"
        },
        {
          "internalType": "string",
          "name": "",
          "type": "string"
        },
        {
          "internalType": "string",
          "name": "",
          "type": "string"
        },
        {
          "internalType": "string",
          "name": "",
          "type": "string"
        },
        {
          "internalType": "uint256",
          "name": "",
          "type": "uint256"
        }
      ],
      "stateMutability": "view",
      "type": "function"
    },
    {
      "inputs": [],
      "name": "owner",
      "outputs": [
        {
          "internalType": "address",
          "name": "",
          "type": "address"
        }
      ],
      "stateMutability": "view",
      "type": "function"
    },
    {
      "inputs": [],
      "name": "question",
      "outputs": [
        {
          "internalType": "string",
          "name": "",
          "type": "string"
        }
      ],
      "stateMutability": "view",
      "type": "function"
    },
    {
      "inputs": [],
      "name": "renounceOwnership",
      "outputs": [],
      "stateMutability": "nonpayable",
      "type": "function"
    },
    {
      "inputs": [
        {
          "internalType": "string",
          "name": "_question",
          "type": "string"
        },
        {
          "internalType": "string",
          "name": "_choice_a",
          "type": "string"
        },
        {
          "internalType": "string",
          "name": "_choice_b",
          "type": "string"
        },
        {
          "internalType": "string",
          "name": "_choice_c",
          "type": "string"
        },
        {
          "internalType": "uint256",
          "name": "_days",
          "type": "uint256"
        }
      ],
      "name": "startVote",
      "outputs": [],
      "stateMutability": "payable",
      "type": "function"
    },
    {
      "inputs": [
        {
          "internalType": "address",
          "name": "newOwner",
          "type": "address"
        }
      ],
      "name": "transferOwnership",
      "outputs": [],
      "stateMutability": "nonpayable",
      "type": "function"
    },
    {
      "inputs": [
        {
          "internalType": "uint256",
          "name": "_choice",
          "type": "uint256"
        }
      ],
      "name": "vote",
      "outputs": [],
      "stateMutability": "nonpayable",
      "type": "function"
    },
    {
      "inputs": [],
      "name": "voteFrom",
      "outputs": [
        {
          "internalType": "address",
          "name": "",
          "type": "address"
        }
      ],
      "stateMutability": "view",
      "type": "function"
    },
    {
      "inputs": [],
      "name": "vote_a",
      "outputs": [
        {
          "internalType": "uint256",
          "name": "",
          "type": "uint256"
        }
      ],
      "stateMutability": "view",
      "type": "function"
    },
    {
      "inputs": [],
      "name": "vote_b",
      "outputs": [
        {
          "internalType": "uint256",
          "name": "",
          "type": "uint256"
        }
      ],
      "stateMutability": "view",
      "type": "function"
    },
    {
      "inputs": [],
      "name": "vote_c",
      "outputs": [
        {
          "internalType": "uint256",
          "name": "",
          "type": "uint256"
        }
      ],
      "stateMutability": "view",
      "type": "function"
    },
    {
      "inputs": [],
      "name": "withdraw",
      "outputs": [],
      "stateMutability": "nonpayable",
      "type": "function"
    }
  ],
  "bytecode": "0x6080604052662386f26fc10000600a5534801561001b57600080fd5b5061003861002d61004460201b60201c565b61004c60201b60201c565b42600981905550610110565b600033905090565b60008060009054906101000a900473ffffffffffffffffffffffffffffffffffffffff169050816000806101000a81548173ffffffffffffffffffffffffffffffffffffffff021916908373ffffffffffffffffffffffffffffffffffffffff1602179055508173ffffffffffffffffffffffffffffffffffffffff168173ffffffffffffffffffffffffffffffffffffffff167f8be0079c531659141344cd1fd0a4f28419497f9722a3daafe3b4186f6b6457e060405160405180910390a35050565b611a4e8061011f6000396000f3fe6080604052600436106101095760003560e01c80638da5cb5b11610095578063cc9e599811610064578063cc9e599814610319578063d56b288914610344578063d936cefb1461035b578063de29278914610377578063f2fde38b146103a457610109565b80638da5cb5b1461026d5780639e9141d414610298578063ac86ea1f146102c3578063b1aebd9d146102ee57610109565b8063385d3b49116100dc578063385d3b49146101be5780633ccfd60b146101e95780633fad9ae0146102005780635958611e1461022b578063715018a61461025657610109565b80630121b93f1461010e57806306f37008146101375780630e743fec1461016257806325dff9d11461018d575b600080fd5b34801561011a57600080fd5b5061013560048036038101906101309190611281565b6103cd565b005b34801561014357600080fd5b5061014c6104e0565b6040516101599190611508565b60405180910390f35b34801561016e57600080fd5b5061017761056e565b6040516101849190611659565b60405180910390f35b34801561019957600080fd5b506101a2610574565b6040516101b5979695949392919061147d565b60405180910390f35b3480156101ca57600080fd5b506101d36107fe565b6040516101e09190611462565b60405180910390f35b3480156101f557600080fd5b506101fe610824565b005b34801561020c57600080fd5b506102156108f6565b6040516102229190611508565b60405180910390f35b34801561023757600080fd5b50610240610984565b60405161024d9190611659565b60405180910390f35b34801561026257600080fd5b5061026b61098a565b005b34801561027957600080fd5b50610282610a12565b60405161028f9190611462565b60405180910390f35b3480156102a457600080fd5b506102ad610a3b565b6040516102ba9190611659565b60405180910390f35b3480156102cf57600080fd5b506102d8610a41565b6040516102e59190611659565b60405180910390f35b3480156102fa57600080fd5b50610303610a47565b6040516103109190611508565b60405180910390f35b34801561032557600080fd5b5061032e610ad5565b60405161033b9190611508565b60405180910390f35b34801561035057600080fd5b50610359610b63565b005b61037560048036038101906103709190611199565b610cc0565b005b34801561038357600080fd5b5061038c610e7c565b60405161039b93929190611674565b60405180910390f35b3480156103b057600080fd5b506103cb60048036038101906103c69190611170565b610e95565b005b6009544210610411576040517f08c379a0000000000000000000000000000000000000000000000000000000008152600401610408906115f9565b60405180910390fd5b60008082141561043f5760016006600082825461042e91906116dc565b92505081905550600654905061048d565b600182141561046c5760016007600082825461045b91906116dc565b92505081905550600754905061048c565b60016008600082825461047f91906116dc565b9250508190555060085490505b5b813373ffffffffffffffffffffffffffffffffffffffff167fafd3f234c1f8e944129b26b206d98e5752ad3336a4059938b4a3e990e9588530836040516104d49190611659565b60405180910390a35050565b600580546104ed90611807565b80601f016020809104026020016040519081016040528092919081815260200182805461051990611807565b80156105665780601f1061053b57610100808354040283529160200191610566565b820191906000526020600020905b81548152906001019060200180831161054957829003601f168201915b505050505081565b60065481565b6000806060806060806000806009544210905080600160009054906101000a900473ffffffffffffffffffffffffffffffffffffffff1660026003600460056009548480546105c290611807565b80601f01602080910402602001604051908101604052809291908181526020018280546105ee90611807565b801561063b5780601f106106105761010080835404028352916020019161063b565b820191906000526020600020905b81548152906001019060200180831161061e57829003601f168201915b5050505050945083805461064e90611807565b80601f016020809104026020016040519081016040528092919081815260200182805461067a90611807565b80156106c75780601f1061069c576101008083540402835291602001916106c7565b820191906000526020600020905b8154815290600101906020018083116106aa57829003601f168201915b505050505093508280546106da90611807565b80601f016020809104026020016040519081016040528092919081815260200182805461070690611807565b80156107535780601f1061072857610100808354040283529160200191610753565b820191906000526020600020905b81548152906001019060200180831161073657829003601f168201915b5050505050925081805461076690611807565b80601f016020809104026020016040519081016040528092919081815260200182805461079290611807565b80156107df5780601f106107b4576101008083540402835291602001916107df565b820191906000526020600020905b8154815290600101906020018083116107c257829003601f168201915b5050505050915097509750975097509750975097505090919293949596565b600160009054906101000a900473ffffffffffffffffffffffffffffffffffffffff1681565b61082c610f8d565b73ffffffffffffffffffffffffffffffffffffffff1661084a610a12565b73ffffffffffffffffffffffffffffffffffffffff16146108a0576040517f08c379a0000000000000000000000000000000000000000000000000000000008152600401610897906115d9565b60405180910390fd5b60006108aa610a12565b90508073ffffffffffffffffffffffffffffffffffffffff166108fc479081150290604051600060405180830381858888f193505050501580156108f2573d6000803e3d6000fd5b5050565b6002805461090390611807565b80601f016020809104026020016040519081016040528092919081815260200182805461092f90611807565b801561097c5780601f106109515761010080835404028352916020019161097c565b820191906000526020600020905b81548152906001019060200180831161095f57829003601f168201915b505050505081565b60095481565b610992610f8d565b73ffffffffffffffffffffffffffffffffffffffff166109b0610a12565b73ffffffffffffffffffffffffffffffffffffffff1614610a06576040517f08c379a00000000000000000000000000000000000000000000000000000000081526004016109fd906115d9565b60405180910390fd5b610a106000610f95565b565b60008060009054906101000a900473ffffffffffffffffffffffffffffffffffffffff16905090565b60085481565b60075481565b60048054610a5490611807565b80601f0160208091040260200160405190810160405280929190818152602001828054610a8090611807565b8015610acd5780601f10610aa257610100808354040283529160200191610acd565b820191906000526020600020905b815481529060010190602001808311610ab057829003601f168201915b505050505081565b60038054610ae290611807565b80601f0160208091040260200160405190810160405280929190818152602001828054610b0e90611807565b8015610b5b5780601f10610b3057610100808354040283529160200191610b5b565b820191906000526020600020905b815481529060010190602001808311610b3e57829003601f168201915b505050505081565b6009544210610ba7576040517f08c379a0000000000000000000000000000000000000000000000000000000008152600401610b9e906115f9565b60405180910390fd5b600160009054906101000a900473ffffffffffffffffffffffffffffffffffffffff1673ffffffffffffffffffffffffffffffffffffffff163373ffffffffffffffffffffffffffffffffffffffff161480610c355750610c06610a12565b73ffffffffffffffffffffffffffffffffffffffff163373ffffffffffffffffffffffffffffffffffffffff16145b610c74576040517f08c379a0000000000000000000000000000000000000000000000000000000008152600401610c6b90611599565b60405180910390fd5b426009819055503373ffffffffffffffffffffffffffffffffffffffff167fa32b00634841e952b8c7636fa42d96c7cef14356516756eee78a756911fa78fb60405160405180910390a2565b600954421015610d05576040517f08c379a0000000000000000000000000000000000000000000000000000000008152600401610cfc90611639565b60405180910390fd5b80600a54610d139190611732565b3414610d54576040517f08c379a0000000000000000000000000000000000000000000000000000000008152600401610d4b90611619565b60405180910390fd5b888860029190610d65929190611059565b50868660039190610d77929190611059565b50848460049190610d89929190611059565b50828260059190610d9b929190611059565b506201518081610dab9190611732565b42610db691906116dc565b60098190555033600160006101000a81548173ffffffffffffffffffffffffffffffffffffffff021916908373ffffffffffffffffffffffffffffffffffffffff1602179055506000600681905550600060078190555060006008819055503373ffffffffffffffffffffffffffffffffffffffff167f27d8123abe5adbe56c46403df17c8fbd2b71917d02e7bb57b28b8b4780cb363e6002600360046005600954604051610e6995949392919061152a565b60405180910390a2505050505050505050565b6000806000600654600754600854925092509250909192565b610e9d610f8d565b73ffffffffffffffffffffffffffffffffffffffff16610ebb610a12565b73ffffffffffffffffffffffffffffffffffffffff1614610f11576040517f08c379a0000000000000000000000000000000000000000000000000000000008152600401610f08906115d9565b60405180910390fd5b600073ffffffffffffffffffffffffffffffffffffffff168173ffffffffffffffffffffffffffffffffffffffff161415610f81576040517f08c379a0000000000000000000000000000000000000000000000000000000008152600401610f78906115b9565b60405180910390fd5b610f8a81610f95565b50565b600033905090565b60008060009054906101000a900473ffffffffffffffffffffffffffffffffffffffff169050816000806101000a81548173ffffffffffffffffffffffffffffffffffffffff021916908373ffffffffffffffffffffffffffffffffffffffff1602179055508173ffffffffffffffffffffffffffffffffffffffff168173ffffffffffffffffffffffffffffffffffffffff167f8be0079c531659141344cd1fd0a4f28419497f9722a3daafe3b4186f6b6457e060405160405180910390a35050565b82805461106590611807565b90600052602060002090601f01602090048101928261108757600085556110ce565b82601f106110a057803560ff19168380011785556110ce565b828001600101855582156110ce579182015b828111156110cd5782358255916020019190600101906110b2565b5b5090506110db91906110df565b5090565b5b808211156110f85760008160009055506001016110e0565b5090565b60008135905061110b816119ea565b92915050565b60008083601f84011261112357600080fd5b8235905067ffffffffffffffff81111561113c57600080fd5b60208301915083600182028301111561115457600080fd5b9250929050565b60008135905061116a81611a01565b92915050565b60006020828403121561118257600080fd5b6000611190848285016110fc565b91505092915050565b600080600080600080600080600060a08a8c0312156111b757600080fd5b60008a013567ffffffffffffffff8111156111d157600080fd5b6111dd8c828d01611111565b995099505060208a013567ffffffffffffffff8111156111fc57600080fd5b6112088c828d01611111565b975097505060408a013567ffffffffffffffff81111561122757600080fd5b6112338c828d01611111565b955095505060608a013567ffffffffffffffff81111561125257600080fd5b61125e8c828d01611111565b935093505060806112718c828d0161115b565b9150509295985092959850929598565b60006020828403121561129357600080fd5b60006112a18482850161115b565b91505092915050565b6112b38161178c565b82525050565b6112c28161179e565b82525050565b60006112d3826116c0565b6112dd81856116cb565b93506112ed8185602086016117d4565b6112f681611897565b840191505092915050565b6000815461130e81611807565b61131881866116cb565b94506001821660008114611333576001811461134557611378565b60ff1983168652602086019350611378565b61134e856116ab565b60005b8381101561137057815481890152600182019150602081019050611351565b808801955050505b50505092915050565b600061138e6023836116cb565b9150611399826118a8565b604082019050919050565b60006113b16026836116cb565b91506113bc826118f7565b604082019050919050565b60006113d46020836116cb565b91506113df82611946565b602082019050919050565b60006113f76011836116cb565b91506114028261196f565b602082019050919050565b600061141a600c836116cb565b915061142582611998565b602082019050919050565b600061143d6019836116cb565b9150611448826119c1565b602082019050919050565b61145c816117ca565b82525050565b600060208201905061147760008301846112aa565b92915050565b600060e082019050611492600083018a6112b9565b61149f60208301896112aa565b81810360408301526114b181886112c8565b905081810360608301526114c581876112c8565b905081810360808301526114d981866112c8565b905081810360a08301526114ed81856112c8565b90506114fc60c0830184611453565b98975050505050505050565b6000602082019050818103600083015261152281846112c8565b905092915050565b600060a08201905081810360008301526115448188611301565b905081810360208301526115588187611301565b9050818103604083015261156c8186611301565b905081810360608301526115808185611301565b905061158f6080830184611453565b9695505050505050565b600060208201905081810360008301526115b281611381565b9050919050565b600060208201905081810360008301526115d2816113a4565b9050919050565b600060208201905081810360008301526115f2816113c7565b9050919050565b60006020820190508181036000830152611612816113ea565b9050919050565b600060208201905081810360008301526116328161140d565b9050919050565b6000602082019050818103600083015261165281611430565b9050919050565b600060208201905061166e6000830184611453565b92915050565b60006060820190506116896000830186611453565b6116966020830185611453565b6116a36040830184611453565b949350505050565b60008190508160005260206000209050919050565b600081519050919050565b600082825260208201905092915050565b60006116e7826117ca565b91506116f2836117ca565b9250827fffffffffffffffffffffffffffffffffffffffffffffffffffffffffffffffff0382111561172757611726611839565b5b828201905092915050565b600061173d826117ca565b9150611748836117ca565b9250817fffffffffffffffffffffffffffffffffffffffffffffffffffffffffffffffff048311821515161561178157611780611839565b5b828202905092915050565b6000611797826117aa565b9050919050565b60008115159050919050565b600073ffffffffffffffffffffffffffffffffffffffff82169050919050565b6000819050919050565b60005b838110156117f25780820151818401526020810190506117d7565b83811115611801576000848401525b50505050565b6000600282049050600182168061181f57607f821691505b6020821081141561183357611832611868565b5b50919050565b7f4e487b7100000000000000000000000000000000000000000000000000000000600052601160045260246000fd5b7f4e487b7100000000000000000000000000000000000000000000000000000000600052602260045260246000fd5b6000601f19601f8301169050919050565b7f4f6e6c7920746865206f776e65722063616e2066696e6973682074686520766f60008201527f7465210000000000000000000000000000000000000000000000000000000000602082015250565b7f4f776e61626c653a206e6577206f776e657220697320746865207a65726f206160008201527f6464726573730000000000000000000000000000000000000000000000000000602082015250565b7f4f776e61626c653a2063616c6c6572206973206e6f7420746865206f776e6572600082015250565b7f566f74652069732066696e697368656421000000000000000000000000000000600082015250565b7f496e76616c696420666565210000000000000000000000000000000000000000600082015250565b7f566f7465206973206e6f742066696e6973686564207965742100000000000000600082015250565b6119f38161178c565b81146119fe57600080fd5b50565b611a0a816117ca565b8114611a1557600080fd5b5056fea264697066735822122070d76b89a47bc6f017a79d9b62c6a63d6987f32444f924f44099590212c6681664736f6c63430008040033",
  "linkReferences": {},
  "deployedLinkReferences": {}
}